S0260000386176722D6D6567612D75736172742D6578616D706C652D706F6C6C65642E7372656394
S11300000C945A000C9477000C9477000C947700AD
S11300100C9477000C9477000C9477000C94770080
S11300200C9477000C9477000C9477000C9468017E
S11300300C9477000C9477000C9477000C94770060
S11300400C9477000C9477000C9477000C94770050
S11300500C9477000C9477000C9477000C94770040
S11300600C9477000C9477000C9477000C94770030
S11300700C9477000C9477000C9477000C94770020
S11300800C9477000C9477000C9477000C94770010
S11300900C9477000C9477000C9477000C94770000
S11300A00C9477000C9477000C9477000C947700F0
S11300B00C94770011241FBECFEFD8E0DEBFCDBF74
S11300C011E0A0E0B1E0EAECF8E002C005900D9286
S11300D0A838B107D9F721E0A8E8B1E001C01D9222
S11300E0AF3DB207E1F70E94CD000C9463040C9479
S11300F00000E1E8F0E080818860808388EA91E68E
S11301009093890080938800AFE6B0E08C91826080
S11301108C9380818360808308951092C50089E167
S11301208093C400E0ECF0E080818D7F808386E0E2
S11301308093C20088E18093C1000895259A2D9888
S11301400E9479000E948D001092DB011092DC0164
S11301501092DD011092DE010895E0ECF0E0908150
S113016095FFFDCF8093C6000895CF93DF93EC01F4
S11301708881882331F021960E94AD0089918111F4
S1130180FBCFDF91CF9108958091C00088231CF4A8
S11301908091C600089580E008950E949E0078949E
S11301A080E091E00E94B50084E291E00E94B500F5
S11301B08DE491E00E94B5008091DD011F928F9340
S11301C08091DC011F928F938091DB011F928F93AA
S11301D088E791E09F938F938BE891E09F938F93AF
S11301E00E9479018BE891E00E94B5008DB79EB71B
S11301F00A960FB6F8949EBF0FBE8DBF6894FF2475
S1130200F5F808E711E0CBE8D1E0CC2EDD2EEE24A2
S1130210E39480918801882309F44BC085B18F252C
S113022085B98091DE018F5F8A3019F08093DE01F9
S11302303EC01092DE01809189018130F1F48091F9
S1130240DD011F928F938091DC011F928F93809127
S1130250DB011F928F931F930F93DF93CF930E9421
S113026079018C2D9D2D0E94B5008DB79EB70A96FD
S11302700FB6F8949EBF0FBE8DBF8091DD018F5FD6
S11302808C3319F08093DD0107C01092DD01809159
S1130290DC018F5F8093DC018091DC018C3339F4C5
S11302A01092DC018091DB018F5F8093DB0110925F
S11302B088010E94C40080938A01863631F0853714
S11302C009F0A7CFE0928901A4CF10928901A1CFB0
S11302D01F920F920FB60F9211248F938091880171
S11302E08F5F809388018F910F900FBE0F901F90A6
S11302F01895AEE0B0E0EFE7F1E00C943A040D8914
S11303001E8986E08C831A8309838FEF9FE79E837F
S11303108D83AE01475E5F4F6F89788DCE01019664
S11303200E949B01EF81F885E00FF11F10822E9649
S1130330E4E00C945604ABE0B0E0E1EAF1E00C94A4
S11303402C046C017B018A01FC01178216828381D3
S113035081FFCCC1CE0101963C01F6019381F701E6
S113036093FD859193FF81917F01882309F4BAC19C
S1130370853239F493FD859193FF81917F01853214
S113038029F4B60190E00E949203E7CF912C212C2E
S1130390312CFFE1F315D8F08B3279F038F4803248
S11303A079F08332A1F4232D20611DC08D3261F0D8
S11303B0803369F4232D216016C0832D8260382E8A
S11303C0E32DE4603E2E2AC0F32DF8601DC037FCF7
S11303D02DC020ED280F2A3040F08E32B9F436FCBF
S11303E081C1232D2064322E19C036FE06C08AE056
S11303F0989E200D1124922E11C0EAE02E9E200D0D
S11304001124222EF32DF0623F2E08C08C3621F4E5
S1130410832D8068382E02C0883641F4F70193FD9D
S1130420859193FF81917F018111B3CF982F9F7D97
S11304309554933028F40C5F1F4F9FE399830DC0AC
S1130440833631F0833771F0833509F059C021C008
S1130450F801808189830E5F1F4F88248394912C37
S1130460530113C02801F2E04F0E511CF801A08083
S1130470B18036FE03C0692D70E002C06FEF7FEFDC
S1130480C5010E9487034C018201F32DFF773F2EA3
S113049016C0280122E0420E511CF801A080B18050
S11304A036FE03C0692D70E002C06FEF7FEFC50117
S11304B00E947C034C01F32DF0683F2E820133FC33
S11304C01BC0822D90E088169906B0F4B60180E234
S11304D090E00E9492032A94F4CFF50137FC8591B1
S11304E037FE81915F01B60190E00E9492032110D2
S11304F02A9421E0821A91088114910471F7E8C0CA
S1130500843611F0893641F5F80137FE07C0608161
S11305107181828193810C5F1F4F08C0608171815A
S1130520072E000C880B990B0E5F1F4FF32DFF76DF
S11305303F2E97FF09C090958095709561957F4FE8
S11305408F4F9F4FF0683F2E2AE030E0A3010E94B6
S1130550CE03882E861845C0853731F4232D2F7E8F
S1130560B22E2AE030E025C0932D997FB92E8F3624
S1130570C1F018F4883579F0B5C0803719F08837A0
S113058021F0B0C0E92FE061BE2EB4FE0DC0FB2DFA
S1130590F460BF2E09C034FE0AC0292F2660B22E93
S11305A006C028E030E005C020E130E002C020E1D0
S11305B032E0F801B7FE07C06081718182819381C6
S11305C00C5F1F4F06C06081718180E090E00E5F78
S11305D01F4FA3010E94CE03882E8618FB2DFF77A0
S11305E03F2E36FE0DC0232D2E7FA22E891458F4E3
S11305F034FE0BC032FC09C0832D8E7EA82E05C0AC
S1130600B82CA32C03C0B82C01C0B92CA4FE0FC075
S1130610FE01E80DF11D8081803321F49A2D997E2D
S1130620A92E09C0A2FE06C0B394B39404C08A2DB7
S1130630867809F0B394A3FC11C0A0FE06C0B214DE
S113064088F4280C922C9B180EC0B21460F4B601E6
S113065080E290E00E949203B394F7CFB21418F4AE
S11306602B1802C0982C212CA4FE10C0B60180E3E4
S113067090E00E949203A2FE17C0A1FC03C088E789
S113068090E002C088E590E0B6010CC08A2D86781F
S113069059F0A1FE02C08BE201C080E2A7FC8DE20A
S11306A0B60190E00E949203891438F4B60180E305
S11306B090E00E9492039A94F7CF8A94F301E80D94
S11306C0F11D8081B60190E00E9492038110F5CF64
S11306D0222009F442CEB60180E290E00E94920307
S11306E02A94F6CFF6018681978102C08FEF9FEF9F
S11306F02B96E2E10C944804FC0105906150704093
S11307000110D8F7809590958E0F9F1F0895FC01D6
S11307106150704001900110D8F7809590958E0F2C
S11307209F1F08950F931F93CF93DF93FB012381A2
S113073021FD03C08FEF9FEF2CC022FF16C046811E
S11307405781248135814217530744F4A081B18134
S11307509D012F5F3F4F318320838C932681378106
S11307602F5F3F4F3783268314C08B01EC01FB01BD
S11307700084F185E02D0995892BE1F6D8011696C0
S11307808D919C911797019617969C938E9316972B
S1130790CE01DF91CF911F910F910895FA01AA27FD
S11307A0283051F1203181F1E8946F936E7F6E5FB0
S11307B07F4F8F4F9F4FAF4FB1E03ED0B4E03CD05E
S11307C0670F781F891F9A1FA11D680F791F8A1F41
S11307D0911DA11D6A0F711D811D911DA11D20D0A8
S11307E009F468943F912AE0269F11243019305D62
S11307F03193DEF6CF010895462F4770405D419353
S1130800B3E00FD0C9F7F6CF462F4F70405D4A339F
S113081018F0495D31FD4052419302D0A9F7EACF67
S1130820B4E0A6959795879577956795BA95C9F796
S113083000976105710508959B01AC010A2E069489
S11308405795479537952795BA95C9F7620F731F42
S1130850841F951FA01D08952F923F924F925F927F
S11308606F927F928F929F92AF92BF92CF92DF92BC
S1130870EF92FF920F931F93CF93DF93CDB7DEB721
S1130880CA1BDB0B0FB6F894DEBF0FBECDBF0994B5
S11308902A88398848885F846E847D848C849B840C
S11308A0AA84B984C884DF80EE80FD800C811B811A
S11308B0AA81B981CE0FD11D0FB6F894DEBF0FBE49
S10D08C0CDBFED010895F894FFCFB9
S11308CA6D65676141565220555341525430204553
S11308DA78616D706C652028506F6C6C6564290DA5
S11308EA0A0D0A0050726573732027752720746FE6
S11308FA207570646174652074686520636C6F6325
S113090A6B20646973706C61792C0D0A00507265EE
S113091A73732027662720746F20667265657A656B
S113092A2074686520636C6F636B20646973706CF0
S113093A61792E0D0A0D0A00253032643A253032C7
S10B094A643A253032640D000B
S9030000FC
